:020000040000FA
:04000000DEEF07F038
:0D0800000054657374656F2E2E2E2E0000BF
:10080E000F0EC16E65EC06F074EC07F00009D8A46B
:10081E0013EF04F015EF04F00BEF04F08C94010EBF
:10082E003B6E480E3BEC07F0340E3D6E000E3E6EF6
:10083E009BEC07F074EC07F00009D8A429EF04F044
:10084E002BEF04F021EF04F08C94010E3B6E500E52
:10085E003BEC07F02D0E3D6E000E3E6E9BEC07F04E
:10086E0074EC07F00009D8A43FEF04F041EF04F058
:10087E0037EF04F08C94010E3B6E580E3BEC07F0F4
:10088E00260E3D6E000E3E6E9BEC07F074EC07F0EC
:10089E000009D8A455EF04F057EF04F04DEF04F023
:1008AE008C94010E3B6E800E3BEC07F0010E3D6EFC
:1008BE00080E3E6EFBEC06F074EC07F00009D8A4AF
:1008CE006BEF04F06DEF04F063EF04F08C94010E07
:1008DE003B6EC00E3BEC07F0488274EC07F000094B
:1008EE00D8A47CEF04F07EEF04F074EF04F08C9447
:1008FE00010E3B6E485008093BEC07F0488074EC43
:10090E0007F00009D8A48EEF04F090EF04F086EF04
:10091E0004F08C94010E3B6E485008093BEC07F036
:10092E00000E456E74EC07F00009D8A4A1EF04F098
:10093E00A3EF04F099EF04F08C94010E3B6EC00E01
:10094E003BEC07F0488074EC07F00009D8A4B2EF36
:10095E0004F0B4EF04F0AAEF04F08C94010E3B6E99
:10096E00485008093BEC07F0020E436EE70E426E4C
:10097E00000EE82EFED7422EFCD7432EFAD700D01B
:10098E00478274EC07F00009D8A4D0EF04F0D2EF40
:10099E0004F0C8EF04F08C94010E3B6E475004092E
:1009AE003BEC07F0000E466E489074EC07F0000921
:1009BE00D8A4E4EF04F0E6EF04F0DCEF04F08C943E
:1009CE00010E3B6E485008093BEC07F07BEF05F03B
:1009DE00080E4664F5EF04F0F8EF04F0010EF9EF9F
:1009EE0004F0000E446E74EC07F00009D8A402EF78
:1009FE0005F004EF05F0FAEF04F08C84010E3B6E67
:100A0E000D0E4624D96EDA6A000EDA22DF503BEC68
:100A1E0007F094EF05F0090E466418EF05F01BEF92
:100A2E0005F0010E1CEF05F0000E446E74EC07F09D
:100A3E000009D8A425EF05F027EF05F01DEF05F00E
:100A4E008C84010E3B6E010E4624D96EDA6A000EBE
:100A5E00DA22DF503BEC07F094EF05F0070E466408
:100A6E003BEF05F03EEF05F0010E3FEF05F0000EF7
:100A7E00446E74EC07F00009D8A448EF05F04AEF75
:100A8E0005F040EF05F08C84010E3B6E1D0E4624E2
:100A9E00D96EDA6A000EDA22DF503BEC07F094EFE3
:100AAE0005F0030E46645EEF05F061EF05F0010EF2
:100ABE0062EF05F0000E446E74EC07F00009D8A446
:100ACE006BEF05F06DEF05F063EF05F08C84010E12
:100ADE003B6E180E4624D96EDA6A000EDA22DF500B
:100AEE003BEC07F094EF05F04550426E436A4350DD
:100AFE00000AD8B485EF05F058EF05F04250000A11
:100B0E00D8B4EFEF04F0010AD8B412EF05F0030ADF
:100B1E00D8B435EF05F058EF05F0462A310E426E87
:100B2E00B20EE82EFED7422EFCD700D04450D8A4E9
:100B3E00A3EF05F0A5EF05F07BEF05F0488074EC10
:100B4E0007F00009D8A4AEEF05F0B0EF05F0A6EF60
:100B5E0005F08C94010E3B6E485008093BEC07F0F3
:100B6E00020E436E450E426EAA0EE82EFED7422EA0
:100B7E00FCD7432EFAD7479274EC07F00009D8A49D
:100B8E00CBEF05F0CDEF05F0C3EF05F08C94010E21
:100B9E003B6E475004093BEC07F0000E466E489042
:100BAE0074EC07F00009D8A4DFEF05F0E1EF05F0D3
:100BBE00D7EF05F08C94010E3B6E485008093BECC4
:100BCE0007F01EEF06F00A0E4664F0EF05F0F3EFA5
:100BDE0005F0010EF4EF05F0000E446E37EF06F04F
:100BEE000B0E4664FDEF05F000EF06F0010E01EF6F
:100BFE0006F0000E446E37EF06F0080E46640AEF5C
:100C0E0006F00DEF06F0010E0EEF06F0000E446E2C
:100C1E0037EF06F0040E466417EF06F01AEF06F0F3
:100C2E00010E1BEF06F0000E446E37EF06F0455036
:100C3E00426E436A4350000AD8B428EF06F011EF13
:100C4E0006F04250000AD8B4EAEF05F0010AD8B413
:100C5E00F7EF05F0030AD8B404EF06F011EF06F033
:100C6E0074EC07F00009D8A43FEF06F041EF06F050
:100C7E0037EF06F08C84010E3B6E200E3BEC07F036
:100C8E00462A110E426E3A0EE82EFED7422EFCD7A1
:100C9E0000D04450D8A456EF06F058EF06F01EEFE1
:100CAE0006F0452A030E45645FEF06F061EF06F08D
:100CBE0099EF04F097EF04F000EF00F09290899016
:100CCE0095948C9495968C960F0E9516010E4A6EF1
:100CDE00050E3D6EDE0EE82EFED73D2EFCD78C9413
:100CEE00000E3B6E300E3BEC07F0FA0E00D0E82EF5
:100CFE00FDD78C94000E3B6E300E3BEC07F0FA0ED7
:100D0E0000D0E82EFDD78C94000E3B6E300E3BECDF
:100D1E0007F0FA0E00D0E82EFDD78C94000E3B6E35
:100D2E00200E3BEC07F074EC07F00009D8A4A2EFFC
:100D3E0006F0A4EF06F09AEF06F074EC07F0000947
:100D4E00D8A4ACEF06F0AEEF06F0A4EF06F08C944C
:100D5E00010E3B6E280E3BEC07F0040E486E74EC51
:100D6E0007F00009D8A4BEEF06F0C0EF06F0B6EF0C
:100D7E0006F08C94010E3B6E485008093BEC07F0D0
:100D8E00020E476E74EC07F00009D8A4D1EF06F0FE
:100D9E00D3EF06F0C9EF06F08C94010E3B6E475070
:100DAE0004093BEC07F074EC07F00009D8A4E2EF5D
:100DBE0006F0E4EF06F0DAEF06F08C94010E3B6ECF
:100DCE00010E3BEC07F074EC07F00009D8A4F2EF2B
:100DDE0006F0F4EF06F0EAEF06F08C94010E3B6E8F
:100DEE00020E3BEC07F012003DC03FF03EC040F05B
:100DFE0022EF07F074EC07F00009D8A409EF07F012
:100E0E000BEF07F001EF07F08C84010E3B6E3FC035
:100E1E00F6FF40C0F7FFF86A070EF76403D008002C
:100E2E00F55005D0F6CFE9FFF7CFEAFFEF503BECD8
:100E3E0007F03F4A402A3FC0F6FF40C0F7FFF86A6E
:100E4E00070EF76403D00800F55005D0F6CFE9FF82
:100E5E00F7CFEAFFEF500009D8A438EF07F03AEFCA
:100E6E0007F001EF07F012003C6E3CC049F089908C
:100E7E0049AE02D08C8E01D08C9E49AC02D08C8CA7
:100E8E0001D08C9C49AA02D08C8A01D08C9A49A898
:100E9E0002D08C8801D08C988C868C963B50D8B41E
:100EAE005BEF07F05DEF07F073EF07F049A602D096
:100EBE008C8E01D08C9E49A402D08C8C01D08C9C3F
:100ECE0049A202D08C8A01D08C9A49A002D08C887B
:100EDE0001D08C988C868C961200630E4A647AEF41
:100EEE0007F07CEF07F081EF07F0010E4A6E000E5F
:100EFE009AEF07F089808C94F00E95128C8683AE53
:100F0E0002D0498E01D0499E8C968C868C960F0EFF
:100F1E009516899049AE96EF07F098EF07F07CEFA3
:100F2E0007F04A2A010E12003DC03FF03EC040F0CD
:100F3E00000E416E74EC07F00009D8A4A9EF07F07B
:100F4E00ABEF07F0A1EF07F08C84010E3B6E3FC0B4
:100F5E00D9FF40C0DAFFDF503BEC07F03F4A402A92
:100F6E00412A070E4164BEEF07F0C0EF07F0A1EF74
:100F7E0007F01200517569656E20657265733F004A
:100F8E00486F6C61204D756E646F0028035F0329F6
:100F9E0001025F28C2295F2F0100001F0A0A0A0AF8
:100FAE00001008040201001F000000000000820E65
:100FBE00F66E0F0EF76E000EF86E00EE01F010EEEC
:100FCE003AF00900F5CFEEFFE550E150FAE1496A3B
:0E0FDE00486A476A000EF86E000107EF04F043
:020000040020DA
:08000000FFFFFFFFFFFFFFFF00
:020000040030CA
:0E00000000081F1EFF8381FF0FC00FE00F409E
:00000001FF
