:020000040000FA
:04000000E2EF07F034
:0D0800000054657374656F2E2E2E2E0000BF
:10080E0063EC06F072EC07F00009D8A411EF04F0C7
:10081E0013EF04F009EF04F08996010E466E480EB0
:10082E0039EC07F03F0E486E000E496E99EC07F05A
:10083E0072EC07F00009D8A427EF04F029EF04F0BA
:10084E001FEF04F08996010E466E500E39EC07F03C
:10085E00380E486E000E496E99EC07F072EC07F0F8
:10086E000009D8A43DEF04F03FEF04F035EF04F09B
:10087E008996010E466E580E39EC07F0310E486E11
:10088E00000E496E99EC07F072EC07F00009D8A43F
:10089E0053EF04F055EF04F04BEF04F08996010E80
:1008AE00466E800E39EC07F0010E486E080E496E4A
:1008BE00F9EC06F072EC07F00009D8A469EF04F029
:1008CE006BEF04F061EF04F08986010E466E080EA0
:1008DE0039EC07F0538272EC07F00009D8A47AEFD6
:1008EE0004F07CEF04F072EF04F08996010E466E70
:1008FE005350080939EC07F0538072EC07F00009E9
:10090E00D8A48CEF04F08EEF04F084EF04F08996F7
:10091E00010E466E5350080939EC07F0000E506E6A
:10092E0072EC07F00009D8A49FEF04F0A1EF04F0D9
:10093E0097EF04F08996010E466EC00E39EC07F063
:10094E00538072EC07F00009D8A4B0EF04F0B2EFB8
:10095E0004F0A8EF04F08996010E466E5350080974
:10096E0039EC07F0020E4E6EE70E4D6E000EE82EBD
:10097E00FED74D2EFCD74E2EFAD700D0528272ECF7
:10098E0007F00009D8A4CEEF04F0D0EF04F0C6EFC4
:10099E0004F08996010E466E5250040939EC07F0A8
:1009AE00000E516E539072EC07F00009D8A4E2EFDE
:1009BE0004F0E4EF04F0DAEF04F08996010E466ECF
:1009CE005350080939EC07F079EF05F0080E516421
:1009DE00F3EF04F0F6EF04F0010EF7EF04F0000E63
:1009EE004F6E72EC07F00009D8A400EF05F002EF8D
:1009FE0005F0F8EF04F08986010E466E0D0E5124B7
:100A0E00D96EDA6A000EDA22DF5039EC07F092EF77
:100A1E0005F0090E516416EF05F019EF05F0010E01
:100A2E001AEF05F0000E4F6E72EC07F00009D8A415
:100A3E0023EF05F025EF05F01BEF05F08986010E7B
:100A4E00466E010E5124D96EDA6A000EDA22DF509C
:100A5E0039EC07F092EF05F0070E516439EF05F00F
:100A6E003CEF05F0010E3DEF05F0000E4F6E72ECFF
:100A7E0007F00009D8A446EF05F048EF05F03EEF69
:100A8E0005F08986010E466E280E5124D96EDA6A5B
:100A9E00000EDA22DF5039EC07F092EF05F0030E6C
:100AAE0051645CEF05F05FEF05F0010E60EF05F0AD
:100ABE00000E4F6E72EC07F00009D8A469EF05F036
:100ACE006BEF05F061EF05F08986010E466E1E0E86
:100ADE005124D96EDA6A000EDA22DF5039EC07F0B3
:100AEE0092EF05F050504D6E4E6A4E50000AD8B43B
:100AFE0083EF05F056EF05F04D50000AD8B4EDEF38
:100B0E0004F0010AD8B410EF05F0030AD8B433EF9D
:100B1E0005F056EF05F0512A310E4D6EB20EE82E4D
:100B2E00FED74D2EFCD700D04F50D8A4A1EF05F024
:100B3E00A3EF05F079EF05F0538072EC07F0000992
:100B4E00D8A4ACEF05F0AEEF05F0A4EF05F0899652
:100B5E00010E466E5350080939EC07F0020E4E6E28
:100B6E00450E4D6EAA0EE82EFED74D2EFCD74E2EFC
:100B7E00FAD7529272EC07F00009D8A4C9EF05F02B
:100B8E00CBEF05F0C1EF05F08996010E466E52507F
:100B9E00040939EC07F0000E516E539072EC07F019
:100BAE000009D8A4DDEF05F0DFEF05F0D5EF05F075
:100BBE008996010E466E5350080939EC07F01CEF6A
:100BCE0006F00A0E5164EEEF05F0F1EF05F0010E9E
:100BDE00F2EF05F0000E4F6E35EF06F00B0E51647E
:100BEE00FBEF05F0FEEF05F0010EFFEF05F0000E36
:100BFE004F6E35EF06F0080E516408EF06F00BEF5E
:100C0E0006F0010E0CEF06F0000E4F6E35EF06F0FB
:100C1E00040E516415EF06F018EF06F0010E19EFF1
:100C2E0006F0000E4F6E35EF06F050504D6E4E6AC8
:100C3E004E50000AD8B426EF06F00FEF06F04D50D6
:100C4E00000AD8B4E8EF05F0010AD8B4F5EF05F0C4
:100C5E00030AD8B402EF06F00FEF06F072EC07F0BD
:100C6E000009D8A43DEF06F03FEF06F035EF06F091
:100C7E008986010E466E200E39EC07F0512A110EB0
:100C8E004D6E3A0EE82EFED74D2EFCD700D04F50AB
:100C9E00D8A454EF06F056EF06F01CEF06F0502ADB
:100CAE00030E50645DEF06F05FEF06F097EF04F071
:100CBE0095EF04F000EF00F0929289929296899649
:100CCE00929489940F0E9216010E556E050E486E73
:100CDE00DE0EE82EFED7482EFCD78996000E466E05
:100CEE00300E39EC07F0FA0E00D0E82EFDD78996BB
:100CFE00000E466E300E39EC07F0FA0E00D0E82EDC
:100D0E00FDD78996000E466E300E39EC07F0FA0EBE
:100D1E0000D0E82EFDD78996000E466E200E39ECD7
:100D2E0007F072EC07F00009D8A4A0EF06F0A2EFCE
:100D3E0006F098EF06F072EC07F00009D8A4AAEFBF
:100D4E0006F0ACEF06F0A2EF06F08996010E466EA5
:100D5E00280E39EC07F0040E536E72EC07F0000902
:100D6E00D8A4BCEF06F0BEEF06F0B4EF06F08996FD
:100D7E00010E466E5350080939EC07F0020E526E02
:100D8E0072EC07F00009D8A4CFEF06F0D1EF06F011
:100D9E00C7EF06F08996010E466E5250040939ECE3
:100DAE0007F072EC07F00009D8A4E0EF06F0E2EFCE
:100DBE0006F0D8EF06F08996010E466E010E39EC5C
:100DCE0007F072EC07F00009D8A4F0EF06F0F2EF8E
:100DDE0006F0E8EF06F08996010E466E020E39EC2B
:100DEE0007F0120048C04AF049C04BF020EF07F060
:100DFE0072EC07F00009D8A407EF07F009EF07F02F
:100E0E00FFEF06F08986010E466E4AC0F6FF4BC014
:100E1E00F7FFF86A070EF76403D00800F55005D007
:100E2E00F6CFE9FFF7CFEAFFEF5039EC07F04A4A69
:100E3E004B2A4AC0F6FF4BC0F7FFF86A070EF7645D
:100E4E0003D00800F55005D0F6CFE9FFF7CFEAFF43
:100E5E00EF500009D8A436EF07F038EF07F0FFEF98
:100E6E0006F01200476E47C054F0899254AE02D07D
:100E7E00898E01D0899E54AC02D0898C01D0899C78
:100E8E0054AA02D0898A01D0899A54A802D089889E
:100E9E0001D08998898489944650D8B459EF07F0C7
:100EAE005BEF07F071EF07F054A602D0898E01D0E8
:100EBE00899E54A402D0898C01D0899C54A202D060
:100ECE00898A01D0899A54A002D0898801D0899844
:100EDE00898489941200630E556478EF07F07AEFD7
:100EEE0007F07FEF07F0010E556E000E98EF07F03A
:100EFE0089828996F00E9212898480AE02D0548E29
:100F0E0001D0549E8994898489940F0E92168992E9
:100F1E0054AE94EF07F096EF07F07AEF07F0552AEC
:100F2E00010E120048C04AF049C04BF0000E4C6E44
:100F3E0072EC07F00009D8A4A7EF07F0A9EF07F0AD
:100F4E009FEF07F08986010E466E4AC0D9FF4BC04F
:100F5E00DAFFDF5039EC07F04A4A4B2A4C2A070ECB
:100F6E004C64BCEF07F0BEEF07F09FEF07F01200E6
:100F7E00517569656E20657265733F00486F6C61CF
:100F8E00204D756E646F000102C200000028035FE1
:100F9E0003294B4F4C007C01025F28C2295F2F01B1
:100FAE0000001F0A0A0A0A001008040201001F00AE
:050FBE0000000000002E
:100FC4007E0EF66E0F0EF76E000EF86E00EE01F058
:100FD40010EE45F00900F5CFEEFFE550E150FAE1DF
:100FE400546A536A526A000EF86E000107EF04F067
:020000040020DA
:08000000FFFFFFFFFFFFFFFF00
:020000040030CA
:0E00000000255F3FFFD385FF0FC00FE00F40CC
:00000001FF
