:020000040000FA
:04000000FCEF07F01A
:0D0800000054657374656F2E2E2E2E0000BF
:10080E0079EC06F088EC07F00009D8A411EF04F09B
:10081E0013EF04F009EF04F08C94010E4E6E400EAF
:10082E004FEC07F0310E506E000E516ED6EC07F005
:10083E0088EC07F00009D8A427EF04F029EF04F0A4
:10084E001FEF04F08C94010E4E6E480E4FEC07F025
:10085E00470E506E000E516ED6EC07F088EC07F086
:10086E000009D8A43DEF04F03FEF04F035EF04F09B
:10087E008C94010E4E6E500E4FEC07F0400E506EE3
:10088E00000E516ED6EC07F088EC07F00009D8A4E4
:10089E0053EF04F055EF04F04BEF04F08C94010E7F
:1008AE004E6E580E4FEC07F0390E506E000E516E14
:1008BE00D6EC07F088EC07F00009D8A469EF04F035
:1008CE006BEF04F061EF04F08C94010E4E6E800E0F
:1008DE004FEC07F0010E506E080E516E0FEC07F044
:1008EE0088EC07F00009D8A47FEF04F081EF04F044
:1008FE0077EF04F08C84010E4E6E080E4FEC07F06D
:10090E005B8288EC07F00009D8A490EF04F092EF18
:10091E0004F088EF04F08C94010E4E6E5B500809C3
:10092E004FEC07F05B8088EC07F00009D8A4A2EF2B
:10093E0004F0A4EF04F09AEF04F08C94010E4E6EC6
:10094E005B5008094FEC07F0000E586E88EC07F06C
:10095E000009D8A4B5EF04F0B7EF04F0ADEF04F042
:10096E008C94010E4E6EC00E4FEC07F05B8088EC3F
:10097E0007F00009D8A4C6EF04F0C8EF04F0BEEFEC
:10098E0004F08C94010E4E6E5B5008094FEC07F08C
:10099E00020E566EE70E556E000EE82EFED7552E41
:1009AE00FCD7562EFAD700D05A8288EC07F00009F1
:1009BE00D8A4E4EF04F0E6EF04F0DCEF04F08C943E
:1009CE00010E4E6E5A5004094FEC07F0000E596E90
:1009DE005B9088EC07F00009D8A4F8EF04F0FAEF6A
:1009EE0004F0F0EF04F08C94010E4E6E5B5008098B
:1009FE004FEC07F08FEF05F0080E596409EF05F084
:100A0E000CEF05F0010E0DEF05F0000E576E88ECA1
:100A1E0007F00009D8A416EF05F018EF05F00EEF59
:100A2E0005F08C84010E4E6E0D0E5924D96EDA6AC5
:100A3E00000EDA22DF504FEC07F0A8EF05F0090E9A
:100A4E0059642CEF05F02FEF05F0010E30EF05F095
:100A5E00000E576E88EC07F00009D8A439EF05F0A8
:100A6E003BEF05F031EF05F08C84010E4E6E010E5A
:100A7E005924D96EDA6A000EDA22DF504FEC07F0F5
:100A8E00A8EF05F0070E59644FEF05F052EF05F091
:100A9E00010E53EF05F0000E576E88EC07F00009BB
:100AAE00D8A45CEF05F05EEF05F054EF05F08C84F2
:100ABE00010E4E6E280E5924D96EDA6A000EDA2215
:100ACE00DF504FEC07F0A8EF05F0030E596472EFFC
:100ADE0005F075EF05F0010E76EF05F0000E576E7E
:100AEE0088EC07F00009D8A47FEF05F081EF05F040
:100AFE0077EF05F08C84010E4E6E1E0E5924D96EC2
:100B0E00DA6A000EDA22DF504FEC07F0A8EF05F09C
:100B1E005850556E566A5650000AD8B499EF05F0E3
:100B2E006CEF05F05550000AD8B403EF05F0010A3A
:100B3E00D8B426EF05F0030AD8B449EF05F06CEFF0
:100B4E0005F0592A310E556EB20EE82EFED7552EEF
:100B5E00FCD700D05750D8A4B7EF05F0B9EF05F089
:100B6E008FEF05F05B8088EC07F00009D8A4C2EF88
:100B7E0005F0C4EF05F0BAEF05F08C94010E4E6E41
:100B8E005B5008094FEC07F0020E566E450E556E7F
:100B9E00AA0EE82EFED7552EFCD7562EFAD75A920D
:100BAE0088EC07F00009D8A4DFEF05F0E1EF05F0BF
:100BBE00D7EF05F08C94010E4E6E5A5004094FEC8F
:100BCE0007F0000E596E5B9088EC07F00009D8A470
:100BDE00F3EF05F0F5EF05F0EBEF05F08C94010E59
:100BEE004E6E5B5008094FEC07F032EF06F00A0E1E
:100BFE00596404EF06F007EF06F0010E08EF06F059
:100C0E00000E576E4BEF06F00B0E596411EF06F007
:100C1E0014EF06F0010E15EF06F0000E576E4BEFB7
:100C2E0006F0080E59641EEF06F021EF06F0010ED5
:100C3E0022EF06F0000E576E4BEF06F0040E5964CD
:100C4E002BEF06F02EEF06F0010E2FEF06F0000E42
:100C5E00576E4BEF06F05850556E566A5650000AB6
:100C6E00D8B43CEF06F025EF06F05550000AD8B484
:100C7E00FEEF05F0010AD8B40BEF06F0030AD8B464
:100C8E0018EF06F025EF06F088EC07F00009D8A45F
:100C9E0053EF06F055EF06F04BEF06F08C84010E85
:100CAE004E6E200E4FEC07F0592A110E556E3A0E6D
:100CBE00E82EFED7552EFCD700D05750D8A46AEF99
:100CCE0006F06CEF06F032EF06F0582A030E586469
:100CDE0073EF06F075EF06F0ADEF04F0ABEF04F036
:100CEE0000EF00F09290899095948C9495968C9646
:100CFE000F0E9516010E5D6E050E506EDE0EE82E71
:100D0E00FED7502EFCD78C94000E4E6E300E4FEC4C
:100D1E0007F0FA0E00D0E82EFDD78C94000E4E6E22
:100D2E00300E4FEC07F0FA0E00D0E82EFDD78C9463
:100D3E00000E4E6E300E4FEC07F0FA0E00D0E82E7D
:100D4E00FDD78C94000E4E6E200E4FEC07F088EC03
:100D5E0007F00009D8A4B6EF06F0B8EF06F0AEEF34
:100D6E0006F088EC07F00009D8A4C0EF06F0C2EF39
:100D7E0006F0B8EF06F08C94010E4E6E280E4FEC76
:100D8E0007F0040E5B6E88EC07F00009D8A4D2EFD2
:100D9E0006F0D4EF06F0CAEF06F08C94010E4E6EFC
:100DAE005B5008094FEC07F0000E5A6E88EC07F006
:100DBE000009D8A4E5EF06F0E7EF06F0DDEF06F048
:100DCE008C94010E4E6E5A5004094FEC07F088ECCD
:100DDE0007F00009D8A4F6EF06F0F8EF06F0EEEFF4
:100DEE0006F08C94010E4E6E010E4FEC07F088EC5F
:100DFE0007F00009D8A406EF07F008EF07F0FEEFA2
:100E0E0006F08C94010E4E6E020E4FEC07F012009F
:100E1E0050C052F051C053F036EF07F088EC07F097
:100E2E000009D8A41DEF07F01FEF07F015EF07F02C
:100E3E008C84010E4E6E52C0F6FF53C0F7FFF86A57
:100E4E00070EF76403D00800F55005D0F6CFE9FF82
:100E5E00F7CFEAFFEF504FEC07F0524A532A52C039
:100E6E00F6FF53C0F7FFF86A070EF76403D00800C9
:100E7E00F55005D0F6CFE9FFF7CFEAFFEF500009A6
:100E8E00D8A44CEF07F04EEF07F015EF07F0120065
:100E9E004F6E4FC05CF089905CAE02D08C8E01D04C
:100EAE008C9E5CAC02D08C8C01D08C9C5CAA02D047
:100EBE008C8A01D08C9A5CA802D08C8801D08C9838
:100ECE008C868C964E50D8B46FEF07F071EF07F00A
:100EDE0087EF07F05CA602D08C8E01D08C9E5CA4AE
:100EEE0002D08C8C01D08C9C5CA202D08C8A01D05A
:100EFE008C9A5CA002D08C8801D08C988C868C96B3
:100F0E001200630E5D648EEF07F090EF07F095EF21
:100F1E0007F0010E5D6E000EAEEF07F089808C9427
:100F2E00F00E95128C8683AE02D05C8E01D05C9E44
:100F3E008C968C868C960F0E951689905CAEAAEFC9
:100F4E0007F0ACEF07F090EF07F05D2A010E1200EC
:100F5E00517569656E20657265733F00486F6C61EF
:100F6E00204D756E646F000102C200000028035F01
:100F7E0003294B4F4C007C01025F28C2295F2F01D1
:100F8E008E8E849F958A918000001F0A0A0A0A009D
:0D0F9E001008040201001F00000000000008
:100FAC0050C052F051C053F0000E546E88EC07F054
:100FBC000009D8A4E4EF07F0E6EF07F0DCEF07F048
:100FCC008C84010E4E6E52C0D9FF53C0DAFFDF5035
:100FDC004FEC07F0524A532A542A070E5464F9EF87
:100FEC0007F0FBEF07F0DCEF07F012005E0EF66E79
:100FFC000F0EF76E000EF86E00EE01F010EE4DF0D5
:10100C000900F5CFEEFFE550E150FAE15C6A5B6A4E
:0C101C005A6A000EF86E000107EF04F0A5
:020000040020DA
:08000000FFFFFFFFFFFFFFFF00
:020000040030CA
:0E00000000051F1FFF8385FF0FC00FE00F409C
:00000001FF
